{
  "contractName": "DeviceFactory",
  "abi": [
    {
      "constant": true,
      "inputs": [],
      "name": "dao",
      "outputs": [
        {
          "name": "",
          "type": "address"
        }
      ],
      "payable": false,
      "stateMutability": "view",
      "type": "function"
    },
    {
      "inputs": [
        {
          "name": "daoAddress",
          "type": "address"
        }
      ],
      "payable": false,
      "stateMutability": "nonpayable",
      "type": "constructor"
    },
    {
      "anonymous": false,
      "inputs": [
        {
          "indexed": true,
          "name": "_deviceAddress",
          "type": "address"
        }
      ],
      "name": "DeviceCreated",
      "type": "event"
    },
    {
      "constant": false,
      "inputs": [
        {
          "name": "_uid",
          "type": "uint256"
        },
        {
          "name": "_initValue",
          "type": "uint256"
        },
        {
          "name": "_owner",
          "type": "address"
        }
      ],
      "name": "createDevice",
      "outputs": [
        {
          "name": "_device",
          "type": "address"
        }
      ],
      "payable": false,
      "stateMutability": "nonpayable",
      "type": "function"
    },
    {
      "constant": false,
      "inputs": [
        {
          "name": "current_owner",
          "type": "address"
        },
        {
          "name": "new_owner",
          "type": "address"
        }
      ],
      "name": "transfer",
      "outputs": [],
      "payable": false,
      "stateMutability": "nonpayable",
      "type": "function"
    },
    {
      "constant": false,
      "inputs": [
        {
          "name": "_owner",
          "type": "address"
        }
      ],
      "name": "recycle",
      "outputs": [],
      "payable": false,
      "stateMutability": "nonpayable",
      "type": "function"
    },
    {
      "constant": true,
      "inputs": [],
      "name": "getDeployedDevices",
      "outputs": [
        {
          "name": "_deployed_devices",
          "type": "address[]"
        }
      ],
      "payable": false,
      "stateMutability": "view",
      "type": "function"
    }
  ],
  "bytecode": "0x608060405234801561001057600080fd5b5060405160208061537f83398101806040528101908080519060200190929190505050806000806101000a81548173ffffffffffffffffffffffffffffffffffffffff021916908373ffffffffffffffffffffffffffffffffffffffff160217905550506152fc806100836000396000f30060806040526004361062000073576000357c0100000000000000000000000000000000000000000000000000000000900463ffffffff1680634162169f1462000078578063ba45b0b814620000d2578063baca00041462000138578063dff49f2e146200017e578063e1d233e814620001ef575b600080fd5b3480156200008557600080fd5b506200009062000289565b604051808273ffffffffffffffffffffffffffffffffffffffff1673ffffffffffffffffffffffffffffffffffffffff16815260200191505060405180910390f35b348015620000df57600080fd5b5062000136600480360381019080803573ffffffffffffffffffffffffffffffffffffffff169060200190929190803573ffffffffffffffffffffffffffffffffffffffff169060200190929190505050620002ae565b005b3480156200014557600080fd5b506200017c600480360381019080803573ffffffffffffffffffffffffffffffffffffffff16906020019092919050505062000360565b005b3480156200018b57600080fd5b50620001966200036e565b6040518080602001828103825283818151815260200191508051906020019060200280838360005b83811015620001db578082015181840152602081019050620001be565b505050509050019250505060405180910390f35b348015620001fc57600080fd5b50620002476004803603810190808035906020019092919080359060200190929190803573ffffffffffffffffffffffffffffffffffffffff1690602001909291905050506200043b565b604051808273ffffffffffffffffffffffffffffffffffffffff1673ffffffffffffffffffffffffffffffffffffffff16815260200191505060405180910390f35b6000809054906101000a900473ffffffffffffffffffffffffffffffffffffffff1681565b620002b982620005f5565b600160008273ffffffffffffffffffffffffffffffffffffffff1673ffffffffffffffffffffffffffffffffffffffff1681526020019081526020016000203390806001815401808255809150509060018203906000526020600020016000909192909190916101000a81548173ffffffffffffffffffffffffffffffffffffffff021916908373ffffffffffffffffffffffffffffffffffffffff160217905550505050565b6200036b81620005f5565b50565b6060600160003373ffffffffffffffffffffffffffffffffffffffff1673ffffffffffffffffffffffffffffffffffffffff1681526020019081526020016000208054806020026020016040519081016040528092919081815260200182805480156200043157602002820191906000526020600020905b8160009054906101000a900473ffffffffffffffffffffffffffffffffffffffff1673ffffffffffffffffffffffffffffffffffffffff1681526020019060010190808311620003e6575b5050505050905090565b6000808483856000809054906101000a900473ffffffffffffffffffffffffffffffffffffffff166200046d620008f2565b808581526020018473ffffffffffffffffffffffffffffffffffffffff1673ffffffffffffffffffffffffffffffffffffffff1681526020018381526020018273ffffffffffffffffffffffffffffffffffffffff1673ffffffffffffffffffffffffffffffffffffffff168152602001945050505050604051809103906000f08015801562000501573d6000803e3d6000fd5b509050600160008473ffffffffffffffffffffffffffffffffffffffff1673ffffffffffffffffffffffffffffffffffffffff1681526020019081526020016000208190806001815401808255809150509060018203906000526020600020016000909192909190916101000a81548173ffffffffffffffffffffffffffffffffffffffff021916908373ffffffffffffffffffffffffffffffffffffffff160217905550508073ffffffffffffffffffffffffffffffffffffffff167f9741b176b8e609c67b88984bad244a04a5c95ada4f7a989c17bac01f7403ebf160405160405180910390a2809150509392505050565b600080600160008473ffffffffffffffffffffffffffffffffffffffff1673ffffffffffffffffffffffffffffffffffffffff168152602001908152602001600020805490509150600090505b81811015620008ed573373ffffffffffffffffffffffffffffffffffffffff16600160008573ffffffffffffffffffffffffffffffffffffffff1673ffffffffffffffffffffffffffffffffffffffff16815260200190815260200160002082815481101515620006af57fe5b9060005260206000200160009054906101000a900473ffffffffffffffffffffffffffffffffffffffff1673ffffffffffffffffffffffffffffffffffffffff161415620008df57600160008473ffffffffffffffffffffffffffffffffffffffff1673ffffffffffffffffffffffffffffffffffffffff168152602001908152602001600020600183038154811015156200074757fe5b9060005260206000200160009054906101000a900473ffffffffffffffffffffffffffffffffffffffff16600160008573ffffffffffffffffffffffffffffffffffffffff1673ffffffffffffffffffffffffffffffffffffffff16815260200190815260200160002082815481101515620007bf57fe5b9060005260206000200160006101000a81548173ffffffffffffffffffffffffffffffffffffffff021916908373ffffffffffffffffffffffffffffffffffffffff160217905550600160008473ffffffffffffffffffffffffffffffffffffffff1673ffffffffffffffffffffffffffffffffffffffff168152602001908152602001600020600183038154811015156200085757fe5b9060005260206000200160006101000a81549073ffffffffffffffffffffffffffffffffffffffff0219169055600160008473ffffffffffffffffffffffffffffffffffffffff1673ffffffffffffffffffffffffffffffffffffffff168152602001908152602001600020805480919060019003620008d8919062000903565b50620008ed565b808060010191505062000642565b505050565b604051614976806200095b83390190565b8154818355818111156200092d578183600052602060002091820191016200092c919062000932565b5b505050565b6200095791905b808211156200095357600081600090555060010162000939565b5090565b90560060806040523480156200001157600080fd5b5060405160808062004976833981018060405281019080805190602001909291908051906020019092919080519060200190929190805190602001909291905050506000806000336000806101000a81548173ffffffffffffffffffffffffffffffffffffffff021916908373ffffffffffffffffffffffffffffffffffffffff1602179055506000809054906101000a900473ffffffffffffffffffffffffffffffffffffffff1673ffffffffffffffffffffffffffffffffffffffff16600073ffffffffffffffffffffffffffffffffffffffff167f8be0079c531659141344cd1fd0a4f28419497f9722a3daafe3b4186f6b6457e060405160405180910390a383600260006101000a81548173ffffffffffffffffffffffffffffffffffffffff021916908373ffffffffffffffffffffffffffffffffffffffff160217905550600260009054906101000a900473ffffffffffffffffffffffffffffffffffffffff1673ffffffffffffffffffffffffffffffffffffffff16634ece90a86040518163ffffffff167c0100000000000000000000000000000000000000000000000000000000028152600401602060405180830381600087803b158015620001dc57600080fd5b505af1158015620001f1573d6000803e3d6000fd5b505050506040513d60208110156200020857600080fd5b81019080805190602001909291905050509250600260009054906101000a900473ffffffffffffffffffffffffffffffffffffffff1673ffffffffffffffffffffffffffffffffffffffff16639e314cd36040518163ffffffff167c0100000000000000000000000000000000000000000000000000000000028152600401602060405180830381600087803b158015620002a257600080fd5b505af1158015620002b7573d6000803e3d6000fd5b505050506040513d6020811015620002ce57600080fd5b81019080805190602001909291905050509150600260009054906101000a900473ffffffffffffffffffffffffffffffffffffffff1673ffffffffffffffffffffffffffffffffffffffff1663dbedd7096040518163ffffffff167c0100000000000000000000000000000000000000000000000000000000028152600401602060405180830381600087803b1580156200036857600080fd5b505af11580156200037d573d6000803e3d6000fd5b505050506040513d60208110156200039457600080fd5b8101908080519060200190929190505050905082600160006101000a81548173ffffffffffffffffffffffffffffffffffffffff021916908373ffffffffffffffffffffffffffffffffffffffff16021790555081600360006101000a81548173ffffffffffffffffffffffffffffffffffffffff021916908373ffffffffffffffffffffffffffffffffffffffff16021790555080600460006101000a81548173ffffffffffffffffffffffffffffffffffffffff021916908373ffffffffffffffffffffffffffffffffffffffff16021790555085600760030160006101000a81548173ffffffffffffffffffffffffffffffffffffffff021916908373ffffffffffffffffffffffffffffffffffffffff1602179055508460076002018190555086600760000181905550620004dc866200062d640100000000026401000000009004565b60a0604051908101604052806040805190810160405280600d81526020017f50726f6f6644617461576970650000000000000000000000000000000000000081525081526020016040805190810160405280600d81526020017f50726f6f6646756e6374696f6e0000000000000000000000000000000000000081525081526020016040805190810160405280600d81526020017f50726f6f665472616e736665720000000000000000000000000000000000000081525081526020016040805190810160405280600a81526020017f50726f6f6652657573650000000000000000000000000000000000000000000081525081526020016040805190810160405280600e81526020017f50726f6f6652656379636c696e6700000000000000000000000000000000000081525081525060069060056200061f92919062000728565b5050505050505050620008bb565b600073ffffffffffffffffffffffffffffffffffffffff168173ffffffffffffffffffffffffffffffffffffffff16141515156200066a57600080fd5b8073ffffffffffffffffffffffffffffffffffffffff166000809054906101000a900473ffffffffffffffffffffffffffffffffffffffff1673ffffffffffffffffffffffffffffffffffffffff167f8be0079c531659141344cd1fd0a4f28419497f9722a3daafe3b4186f6b6457e060405160405180910390a3806000806101000a81548173ffffffffffffffffffffffffffffffffffffffff021916908373ffffffffffffffffffffffffffffffffffffffff16021790555050565b8280548282559060005260206000209081019282156200077c579160200282015b828111156200077b5782518290805190602001906200076a9291906200078f565b509160200191906001019062000749565b5b5090506200078b919062000816565b5090565b828054600181600116156101000203166002900490600052602060002090601f016020900481019282601f10620007d257805160ff191683800117855562000803565b8280016001018555821562000803579182015b8281111562000802578251825591602001919060010190620007e5565b5b50905062000812919062000847565b5090565b6200084491905b808211156200084057600081816200083691906200086f565b506001016200081d565b5090565b90565b6200086c91905b80821115620008685760008160009055506001016200084e565b5090565b90565b50805460018160011615610100020316600290046000825580601f10620008975750620008b8565b601f016020900490600052602060002090810190620008b7919062000847565b5b50565b6140ab80620008cb6000396000f300608060405260043610610149576000357c0100000000000000000000000000000000000000000000000000000000900463ffffffff16806321b27a981461014e5780633d0e6f19146102395780634bbf6b76146102645780635f7e50fd1461042b578063603724d7146105485780636e5dea10146105fe578063715018a6146107525780637c2ecbfe146107695780637cef344614610844578063893d20e8146109355780638da5cb5b1461098c5780638f32d59b146109e3578063991782f214610a125780639abaaab214610ad05780639dd526ed14610b1d578063a751fc7314610bd6578063b377f8ae14610c57578063baca000414610cae578063bed3a9db14610cf1578063c399ec8814610d34578063d7a1e94214610d5f578063e7e82bd114610d92578063e8d6329a14610e0b578063ef03e1d914610ea8578063f2fde38b1461116e575b600080fd5b34801561015a57600080fd5b5061017d60048036038101908080356000191690602001909291905050506111b1565b60405180858152602001848152602001806020018373ffffffffffffffffffffffffffffffffffffffff1673ffffffffffffffffffffffffffffffffffffffff168152602001828103825284818151815260200191508051906020019080838360005b838110156101fb5780820151818401526020810190506101e0565b50505050905090810190601f1680156102285780820380516001836020036101000a031916815260200191505b509550505050505060405180910390f35b34801561024557600080fd5b5061024e611312565b6040518082815260200191505060405180910390f35b34801561027057600080fd5b50610429600480360381019080803590602001908201803590602001908080601f0160208091040260200160405190810160405280939291908181526020018383808284378201915050505050509192919290803590602001908201803590602001908080601f0160208091040260200160405190810160405280939291908181526020018383808284378201915050505050509192919290803590602001908201803590602001908080601f0160208091040260200160405190810160405280939291908181526020018383808284378201915050505050509192919290803590602001908201803590602001908080601f0160208091040260200160405190810160405280939291908181526020018383808284378201915050505050509192919290803590602001908201803590602001908080601f0160208091040260200160405190810160405280939291908181526020018383808284378201915050505050509192919290803590602001908201803590602001908080601f016020809104026020016040519081016040528093929190818152602001838380828437820191505050505050919291929050505061131f565b005b34801561043757600080fd5b5061045a60048036038101908080356000191690602001909291905050506119c5565b604051808060200180602001848152602001838103835286818151815260200191508051906020019080838360005b838110156104a4578082015181840152602081019050610489565b50505050905090810190601f1680156104d15780820380516001836020036101000a031916815260200191505b50838103825285818151815260200191508051906020019080838360005b8381101561050a5780820151818401526020810190506104ef565b50505050905090810190601f1680156105375780820380516001836020036101000a031916815260200191505b509550505050505060405180910390f35b34801561055457600080fd5b506105776004803603810190808035600019169060200190929190505050611b5d565b604051808573ffffffffffffffffffffffffffffffffffffffff1673ffffffffffffffffffffffffffffffffffffffff1681526020018473ffffffffffffffffffffffffffffffffffffffff1673ffffffffffffffffffffffffffffffffffffffff1681526020018381526020018215151515815260200194505050505060405180910390f35b34801561060a57600080fd5b5061062d6004803603810190808035600019169060200190929190505050611c64565b604051808060200180602001851515151581526020018473ffffffffffffffffffffffffffffffffffffffff1673ffffffffffffffffffffffffffffffffffffffff168152602001838103835287818151815260200191508051906020019080838360005b838110156106ad578082015181840152602081019050610692565b50505050905090810190601f1680156106da5780820380516001836020036101000a031916815260200191505b50838103825286818151815260200191508051906020019080838360005b838110156107135780820151818401526020810190506106f8565b50505050905090810190601f1680156107405780820380516001836020036101000a031916815260200191505b50965050505050505060405180910390f35b34801561075e57600080fd5b50610767611e09565b005b34801561077557600080fd5b50610842600480360381019080803590602001908201803590602001908080601f0160208091040260200160405190810160405280939291908181526020018383808284378201915050505050509192919290803590602001908201803590602001908080601f0160208091040260200160405190810160405280939291908181526020018383808284378201915050505050509192919290803515159060200190929190803573ffffffffffffffffffffffffffffffffffffffff169060200190929190505050611edb565b005b34801561085057600080fd5b506108b96004803603810190808035600019169060200190929190803590602001908201803590602001908080601f0160208091040260200160405190810160405280939291908181526020018383808284378201915050505050509192919290505050612379565b604051808481526020018373ffffffffffffffffffffffffffffffffffffffff1673ffffffffffffffffffffffffffffffffffffffff1681526020018273ffffffffffffffffffffffffffffffffffffffff1673ffffffffffffffffffffffffffffffffffffffff168152602001935050505060405180910390f35b34801561094157600080fd5b5061094a6124e0565b604051808273ffffffffffffffffffffffffffffffffffffffff1673ffffffffffffffffffffffffffffffffffffffff16815260200191505060405180910390f35b34801561099857600080fd5b506109a161250d565b604051808273ffffffffffffffffffffffffffffffffffffffff1673ffffffffffffffffffffffffffffffffffffffff16815260200191505060405180910390f35b3480156109ef57600080fd5b506109f8612536565b604051808215151515815260200191505060405180910390f35b348015610a1e57600080fd5b50610a79600480360381019080803590602001908201803590602001908080601f016020809104026020016040519081016040528093929190818152602001838380828437820191505050505050919291929050505061258d565b6040518080602001828103825283818151815260200191508051906020019060200280838360005b83811015610abc578082015181840152602081019050610aa1565b505050509050019250505060405180910390f35b348015610adc57600080fd5b50610b1b600480360381019080803573ffffffffffffffffffffffffffffffffffffffff16906020019092919080359060200190929190505050612654565b005b348015610b2957600080fd5b50610bd4600480360381019080803590602001908201803590602001908080601f0160208091040260200160405190810160405280939291908181526020018383808284378201915050505050509192919290803590602001908201803590602001908080601f0160208091040260200160405190810160405280939291908181526020018383808284378201915050505050509192919290803590602001909291905050506127f8565b005b348015610be257600080fd5b50610c3d600480360381019080803590602001908201803590602001908080601f0160208091040260200160405190810160405280939291908181526020018383808284378201915050505050509192919290505050612d64565b604051808215151515815260200191505060405180910390f35b348015610c6357600080fd5b50610c6c612dde565b604051808273ffffffffffffffffffffffffffffffffffffffff1673ffffffffffffffffffffffffffffffffffffffff16815260200191505060405180910390f35b348015610cba57600080fd5b50610cef600480360381019080803573ffffffffffffffffffffffffffffffffffffffff169060200190929190505050612e04565b005b348015610cfd57600080fd5b50610d32600480360381019080803573ffffffffffffffffffffffffffffffffffffffff16906020019092919050505061304b565b005b348015610d4057600080fd5b50610d49613202565b6040518082815260200191505060405180910390f35b348015610d6b57600080fd5b50610d7461320f565b60405180826000191660001916815260200191505060405180910390f35b348015610d9e57600080fd5b50610e09600480360381019080803573ffffffffffffffffffffffffffffffffffffffff169060200190929190803573ffffffffffffffffffffffffffffffffffffffff169060200190929190803590602001909291908035151590602001909291905050506132ba565b005b348015610e1757600080fd5b50610ea66004803603810190808035906020019092919080359060200190929190803590602001908201803590602001908080601f0160208091040260200160405190810160405280939291908181526020018383808284378201915050505050509192919290803573ffffffffffffffffffffffffffffffffffffffff169060200190929190505050613675565b005b348015610eb457600080fd5b50610ed76004803603810190808035600019169060200190929190505050613b4c565b6040518080602001806020018060200180602001806020018060200187810387528d818151815260200191508051906020019080838360005b83811015610f2b578082015181840152602081019050610f10565b50505050905090810190601f168015610f585780820380516001836020036101000a031916815260200191505b5087810386528c818151815260200191508051906020019080838360005b83811015610f91578082015181840152602081019050610f76565b50505050905090810190601f168015610fbe5780820380516001836020036101000a031916815260200191505b5087810385528b818151815260200191508051906020019080838360005b83811015610ff7578082015181840152602081019050610fdc565b50505050905090810190601f1680156110245780820380516001836020036101000a031916815260200191505b5087810384528a818151815260200191508051906020019080838360005b8381101561105d578082015181840152602081019050611042565b50505050905090810190601f16801561108a5780820380516001836020036101000a031916815260200191505b50878103835289818151815260200191508051906020019080838360005b838110156110c35780820151818401526020810190506110a8565b50505050905090810190601f1680156110f05780820380516001836020036101000a031916815260200191505b50878103825288818151815260200191508051906020019080838360005b8381101561112957808201518184015260208101905061110e565b50505050905090810190601f1680156111565780820380516001836020036101000a031916815260200191505b509c5050505050505050505050505060405180910390f35b34801561117a57600080fd5b506111af600480360381019080803573ffffffffffffffffffffffffffffffffffffffff169060200190929190505050613e1f565b005b60008060606000600460009054906101000a900473ffffffffffffffffffffffffffffffffffffffff1673ffffffffffffffffffffffffffffffffffffffff1663b24406b2866040518263ffffffff167c0100000000000000000000000000000000000000000000000000000000028152600401808260001916600019168152602001915050600060405180830381600087803b15801561125157600080fd5b505af1158015611265573d6000803e3d6000fd5b505050506040513d6000823e3d601f19601f82011682018060405250608081101561128f57600080fd5b81019080805190602001909291908051906020019092919080516401000000008111156112bb57600080fd5b828101905060208101848111156112d157600080fd5b81518560018202830111640100000000821117156112ee57600080fd5b50509291906020018051906020019092919050505093509350935093509193509193565b6000600760000154905090565b6000600460009054906101000a900473ffffffffffffffffffffffffffffffffffffffff1673ffffffffffffffffffffffffffffffffffffffff1663d3405686303073ffffffffffffffffffffffffffffffffffffffff16638da5cb5b6040518163ffffffff167c0100000000000000000000000000000000000000000000000000000000028152600401602060405180830381600087803b1580156113c457600080fd5b505af11580156113d8573d6000803e3d6000fd5b505050506040513d60208110156113ee57600080fd5b81019080805190602001909291905050508a8a8a8a8a8a6040518963ffffffff167c0100000000000000000000000000000000000000000000000000000000028152600401808973ffffffffffffffffffffffffffffffffffffffff1673ffffffffffffffffffffffffffffffffffffffff1681526020018873ffffffffffffffffffffffffffffffffffffffff1673ffffffffffffffffffffffffffffffffffffffff16815260200180602001806020018060200180602001806020018060200187810387528d818151815260200191508051906020019080838360005b838110156114e85780820151818401526020810190506114cd565b50505050905090810190601f1680156115155780820380516001836020036101000a031916815260200191505b5087810386528c818151815260200191508051906020019080838360005b8381101561154e578082015181840152602081019050611533565b50505050905090810190601f16801561157b5780820380516001836020036101000a031916815260200191505b5087810385528b818151815260200191508051906020019080838360005b838110156115b4578082015181840152602081019050611599565b50505050905090810190601f1680156115e15780820380516001836020036101000a031916815260200191505b5087810384528a818151815260200191508051906020019080838360005b8381101561161a5780820151818401526020810190506115ff565b50505050905090810190601f1680156116475780820380516001836020036101000a031916815260200191505b50878103835289818151815260200191508051906020019080838360005b83811015611680578082015181840152602081019050611665565b50505050905090810190601f1680156116ad5780820380516001836020036101000a031916815260200191505b50878103825288818151815260200191508051906020019080838360005b838110156116e65780820151818401526020810190506116cb565b50505050905090810190601f1680156117135780820380516001836020036101000a031916815260200191505b509e505050505050505050505050505050602060405180830381600087803b15801561173e57600080fd5b505af1158015611752573d6000803e3d6000fd5b505050506040513d602081101561176857600080fd5b81019080805190602001909291905050509050600560405180807f50726f6f6652656379636c696e67000000000000000000000000000000000000815250600e019050908152602001604051809103902081908060018154018082558091505090600182039060005260206000200160009091929091909150906000191690555080600019167fc2a09c69a5846a699238737aac66bde46f2497753ec37631df1d7678a85d94b260405160405180910390a27f5a68c5b792caed43f83f90b59c8006d552774b84e89e7a3c72159a50e51007af3073ffffffffffffffffffffffffffffffffffffffff16638da5cb5b6040518163ffffffff167c0100000000000000000000000000000000000000000000000000000000028152600401602060405180830381600087803b15801561189f57600080fd5b505af11580156118b3573d6000803e3d6000fd5b505050506040513d60208110156118c957600080fd5b81019080805190602001909291905050503088604051808473ffffffffffffffffffffffffffffffffffffffff1673ffffffffffffffffffffffffffffffffffffffff1681526020018373ffffffffffffffffffffffffffffffffffffffff1673ffffffffffffffffffffffffffffffffffffffff16815260200180602001828103825283818151815260200191508051906020019080838360005b83811015611980578082015181840152602081019050611965565b50505050905090810190601f1680156119ad5780820380516001836020036101000a031916815260200191505b5094505050505060405180910390a150505050505050565b6060806000600460009054906101000a900473ffffffffffffffffffffffffffffffffffffffff1673ffffffffffffffffffffffffffffffffffffffff166394ea9a4d856040518263ffffffff167c0100000000000000000000000000000000000000000000000000000000028152600401808260001916600019168152602001915050600060405180830381600087803b158015611a6357600080fd5b505af1158015611a77573d6000803e3d6000fd5b505050506040513d6000823e3d601f19601f820116820180604052506060811015611aa157600080fd5b810190808051640100000000811115611ab957600080fd5b82810190506020810184811115611acf57600080fd5b8151856001820283011164010000000082111715611aec57600080fd5b50509291906020018051640100000000811115611b0857600080fd5b82810190506020810184811115611b1e57600080fd5b8151856001820283011164010000000082111715611b3b57600080fd5b5050929190602001805190602001909291905050509250925092509193909250565b600080600080600460009054906101000a900473ffffffffffffffffffffffffffffffffffffffff1673ffffffffffffffffffffffffffffffffffffffff16630e782060866040518263ffffffff167c0100000000000000000000000000000000000000000000000000000000028152600401808260001916600019168152602001915050608060405180830381600087803b158015611bfc57600080fd5b505af1158015611c10573d6000803e3d6000fd5b505050506040513d6080811015611c2657600080fd5b810190808051906020019092919080519060200190929190805190602001909291908051906020019092919050505093509350935093509193509193565b606080600080600460009054906101000a900473ffffffffffffffffffffffffffffffffffffffff1673ffffffffffffffffffffffffffffffffffffffff166385c3090f866040518263ffffffff167c0100000000000000000000000000000000000000000000000000000000028152600401808260001916600019168152602001915050600060405180830381600087803b158015611d0357600080fd5b505af1158015611d17573d6000803e3d6000fd5b505050506040513d6000823e3d601f19601f820116820180604052506080811015611d4157600080fd5b810190808051640100000000811115611d5957600080fd5b82810190506020810184811115611d6f57600080fd5b8151856001820283011164010000000082111715611d8c57600080fd5b50509291906020018051640100000000811115611da857600080fd5b82810190506020810184811115611dbe57600080fd5b8151856001820283011164010000000082111715611ddb57600080fd5b5050929190602001805190602001909291908051906020019092919050505093509350935093509193509193565b611e11612536565b1515611e1c57600080fd5b600073ffffffffffffffffffffffffffffffffffffffff166000809054906101000a900473ffffffffffffffffffffffffffffffffffffffff1673ffffffffffffffffffffffffffffffffffffffff167f8be0079c531659141344cd1fd0a4f28419497f9722a3daafe3b4186f6b6457e060405160405180910390a360008060006101000a81548173ffffffffffffffffffffffffffffffffffffffff021916908373ffffffffffffffffffffffffffffffffffffffff160217905550565b6000600460009054906101000a900473ffffffffffffffffffffffffffffffffffffffff1673ffffffffffffffffffffffffffffffffffffffff166357da194e303073ffffffffffffffffffffffffffffffffffffffff16638da5cb5b6040518163ffffffff167c0100000000000000000000000000000000000000000000000000000000028152600401602060405180830381600087803b158015611f8057600080fd5b505af1158015611f94573d6000803e3d6000fd5b505050506040513d6020811015611faa57600080fd5b8101908080519060200190929190505050888888886040518763ffffffff167c0100000000000000000000000000000000000000000000000000000000028152600401808773ffffffffffffffffffffffffffffffffffffffff1673ffffffffffffffffffffffffffffffffffffffff1681526020018673ffffffffffffffffffffffffffffffffffffffff1673ffffffffffffffffffffffffffffffffffffffff1681526020018060200180602001851515151581526020018473ffffffffffffffffffffffffffffffffffffffff1673ffffffffffffffffffffffffffffffffffffffff168152602001838103835287818151815260200191508051906020019080838360005b838110156120ce5780820151818401526020810190506120b3565b50505050905090810190601f1680156120fb5780820380516001836020036101000a031916815260200191505b50838103825286818151815260200191508051906020019080838360005b83811015612134578082015181840152602081019050612119565b50505050905090810190601f1680156121615780820380516001836020036101000a031916815260200191505b5098505050505050505050602060405180830381600087803b15801561218657600080fd5b505af115801561219a573d6000803e3d6000fd5b505050506040513d60208110156121b057600080fd5b81019080805190602001909291905050509050600560405180807f50726f6f66446174615769706500000000000000000000000000000000000000815250600d019050908152602001604051809103902081908060018154018082558091505090600182039060005260206000200160009091929091909150906000191690555080600019167fc2a09c69a5846a699238737aac66bde46f2497753ec37631df1d7678a85d94b260405160405180910390a27f4c3d075858d6ff7a1ddd633b10978a96e0e90b01d37a2a45daaea3758ee51bfa82308786604051808573ffffffffffffffffffffffffffffffffffffffff1673ffffffffffffffffffffffffffffffffffffffff1681526020018473ffffffffffffffffffffffffffffffffffffffff1673ffffffffffffffffffffffffffffffffffffffff1681526020018060200183151515158152602001828103825284818151815260200191508051906020019080838360005b8381101561233557808201518184015260208101905061231a565b50505050905090810190601f1680156123625780820380516001836020036101000a031916815260200191505b509550505050505060405180910390a15050505050565b6000806000600460009054906101000a900473ffffffffffffffffffffffffffffffffffffffff1673ffffffffffffffffffffffffffffffffffffffff16637cef344686866040518363ffffffff167c010000000000000000000000000000000000000000000000000000000002815260040180836000191660001916815260200180602001828103825283818151815260200191508051906020019080838360005b8381101561243757808201518184015260208101905061241c565b50505050905090810190601f1680156124645780820380516001836020036101000a031916815260200191505b509350505050606060405180830381600087803b15801561248457600080fd5b505af1158015612498573d6000803e3d6000fd5b505050506040513d60608110156124ae57600080fd5b810190808051906020019092919080519060200190929190805190602001909291905050509250925092509250925092565b6000600760030160009054906101000a900473ffffffffffffffffffffffffffffffffffffffff16905090565b60008060009054906101000a900473ffffffffffffffffffffffffffffffffffffffff16905090565b60008060009054906101000a900473ffffffffffffffffffffffffffffffffffffffff1673ffffffffffffffffffffffffffffffffffffffff163373ffffffffffffffffffffffffffffffffffffffff1614905090565b60606005826040518082805190602001908083835b6020831015156125c757805182526020820191506020810190506020830392506125a2565b6001836020036101000a038019825116818451168082178552505050505050905001915050908152602001604051809103902080548060200260200160405190810160405280929190818152602001828054801561264857602002820191906000526020600020905b81546000191681526020019060010190808311612630575b50505050509050919050565b61265c612536565b151561266757600080fd5b61266f613e3e565b600360009054906101000a900473ffffffffffffffffffffffffffffffffffffffff1673ffffffffffffffffffffffffffffffffffffffff1663ba45b0b8600760030160009054906101000a900473ffffffffffffffffffffffffffffffffffffffff16846040518363ffffffff167c0100000000000000000000000000000000000000000000000000000000028152600401808373ffffffffffffffffffffffffffffffffffffffff1673ffffffffffffffffffffffffffffffffffffffff1681526020018273ffffffffffffffffffffffffffffffffffffffff1673ffffffffffffffffffffffffffffffffffffffff16815260200192505050600060405180830381600087803b15801561278557600080fd5b505af1158015612799573d6000803e3d6000fd5b5050505081600760030160006101000a81548173ffffffffffffffffffffffffffffffffffffffff021916908373ffffffffffffffffffffffffffffffffffffffff160217905550806007600201819055506127f482613e1f565b5050565b6000600460009054906101000a900473ffffffffffffffffffffffffffffffffffffffff1673ffffffffffffffffffffffffffffffffffffffff1663cbc317fb303073ffffffffffffffffffffffffffffffffffffffff16638da5cb5b6040518163ffffffff167c0100000000000000000000000000000000000000000000000000000000028152600401602060405180830381600087803b15801561289d57600080fd5b505af11580156128b1573d6000803e3d6000fd5b505050506040513d60208110156128c757600080fd5b81019080805190602001909291905050508787876040518663ffffffff167c0100000000000000000000000000000000000000000000000000000000028152600401808673ffffffffffffffffffffffffffffffffffffffff1673ffffffffffffffffffffffffffffffffffffffff1681526020018573ffffffffffffffffffffffffffffffffffffffff1673ffffffffffffffffffffffffffffffffffffffff1681526020018060200180602001848152602001838103835286818151815260200191508051906020019080838360005b838110156129b4578082015181840152602081019050612999565b50505050905090810190601f1680156129e15780820380516001836020036101000a031916815260200191505b50838103825285818151815260200191508051906020019080838360005b83811015612a1a5780820151818401526020810190506129ff565b50505050905090810190601f168015612a475780820380516001836020036101000a031916815260200191505b50975050505050505050602060405180830381600087803b158015612a6b57600080fd5b505af1158015612a7f573d6000803e3d6000fd5b505050506040513d6020811015612a9557600080fd5b81019080805190602001909291905050509050600560405180807f50726f6f66526575736500000000000000000000000000000000000000000000815250600a019050908152602001604051809103902081908060018154018082558091505090600182039060005260206000200160009091929091909150906000191690555080600019167fc2a09c69a5846a699238737aac66bde46f2497753ec37631df1d7678a85d94b260405160405180910390a27fccad8374447c4ef0dc94115adbb2b86e9321ddd4284ee6e4407240c3562e0aad3073ffffffffffffffffffffffffffffffffffffffff16638da5cb5b6040518163ffffffff167c0100000000000000000000000000000000000000000000000000000000028152600401602060405180830381600087803b158015612bcc57600080fd5b505af1158015612be0573d6000803e3d6000fd5b505050506040513d6020811015612bf657600080fd5b810190808051906020019092919050505030868686604051808673ffffffffffffffffffffffffffffffffffffffff1673ffffffffffffffffffffffffffffffffffffffff1681526020018573ffffffffffffffffffffffffffffffffffffffff1673ffffffffffffffffffffffffffffffffffffffff1681526020018060200180602001848152602001838103835286818151815260200191508051906020019080838360005b83811015612cb9578082015181840152602081019050612c9e565b50505050905090810190601f168015612ce65780820380516001836020036101000a031916815260200191505b50838103825285818151815260200191508051906020019080838360005b83811015612d1f578082015181840152602081019050612d04565b50505050905090810190601f168015612d4c5780820380516001836020036101000a031916815260200191505b5097505050505050505060405180910390a150505050565b6000806005836040518082805190602001908083835b602083101515612d9f5780518252602082019150602081019050602083039250612d7a565b6001836020036101000a038019825116818451168082178552505050505050905001915050908152602001604051809103902080549050119050919050565b600260009054906101000a900473ffffffffffffffffffffffffffffffffffffffff1681565b3373ffffffffffffffffffffffffffffffffffffffff163073ffffffffffffffffffffffffffffffffffffffff16638da5cb5b6040518163ffffffff167c0100000000000000000000000000000000000000000000000000000000028152600401602060405180830381600087803b158015612e7f57600080fd5b505af1158015612e93573d6000803e3d6000fd5b505050506040513d6020811015612ea957600080fd5b810190808051906020019092919050505073ffffffffffffffffffffffffffffffffffffffff16141515612f6b576040517f08c379a00000000000000000000000000000000000000000000000000000000081526004018080602001828103825260228152602001807f4f6e6c79206f776e65722063616e2072656379636c652074686520646576696381526020017f652e00000000000000000000000000000000000000000000000000000000000081525060400191505060405180910390fd5b612f73613e3e565b600360009054906101000a900473ffffffffffffffffffffffffffffffffffffffff1673ffffffffffffffffffffffffffffffffffffffff1663baca0004826040518263ffffffff167c0100000000000000000000000000000000000000000000000000000000028152600401808273ffffffffffffffffffffffffffffffffffffffff1673ffffffffffffffffffffffffffffffffffffffff168152602001915050600060405180830381600087803b15801561303057600080fd5b505af1158015613044573d6000803e3d6000fd5b5050505050565b6000613055612536565b151561306057600080fd5b8190508073ffffffffffffffffffffffffffffffffffffffff1663770ad1ce303073ffffffffffffffffffffffffffffffffffffffff16638da5cb5b6040518163ffffffff167c0100000000000000000000000000000000000000000000000000000000028152600401602060405180830381600087803b1580156130e457600080fd5b505af11580156130f8573d6000803e3d6000fd5b505050506040513d602081101561310e57600080fd5b81019080805190602001909291905050506007600201546040518463ffffffff167c0100000000000000000000000000000000000000000000000000000000028152600401808473ffffffffffffffffffffffffffffffffffffffff1673ffffffffffffffffffffffffffffffffffffffff1681526020018373ffffffffffffffffffffffffffffffffffffffff1673ffffffffffffffffffffffffffffffffffffffff1681526020018281526020019350505050600060405180830381600087803b1580156131dd57600080fd5b505af11580156131f1573d6000803e3d6000fd5b505050506131fe82613e1f565b5050565b6000600760020154905090565b600061324f6040805190810160405280600e81526020017f50726f6f6652656379636c696e67000000000000000000000000000000000000815250612d64565b156132b257600560405180807f50726f6f6652656379636c696e67000000000000000000000000000000000000815250600e019050908152602001604051809103902060008154811015156132a057fe5b906000526020600020015490506132b7565b600090505b90565b6000600460009054906101000a900473ffffffffffffffffffffffffffffffffffffffff1673ffffffffffffffffffffffffffffffffffffffff1663a8b10123303073ffffffffffffffffffffffffffffffffffffffff16638da5cb5b6040518163ffffffff167c0100000000000000000000000000000000000000000000000000000000028152600401602060405180830381600087803b15801561335f57600080fd5b505af1158015613373573d6000803e3d6000fd5b505050506040513d602081101561338957600080fd5b8101908080519060200190929190505050888888886040518763ffffffff167c0100000000000000000000000000000000000000000000000000000000028152600401808773ffffffffffffffffffffffffffffffffffffffff1673ffffffffffffffffffffffffffffffffffffffff1681526020018673ffffffffffffffffffffffffffffffffffffffff1673ffffffffffffffffffffffffffffffffffffffff1681526020018573ffffffffffffffffffffffffffffffffffffffff1673ffffffffffffffffffffffffffffffffffffffff1681526020018473ffffffffffffffffffffffffffffffffffffffff1673ffffffffffffffffffffffffffffffffffffffff168152602001838152602001821515151581526020019650505050505050602060405180830381600087803b1580156134c757600080fd5b505af11580156134db573d6000803e3d6000fd5b505050506040513d60208110156134f157600080fd5b81019080805190602001909291905050509050600560405180807f50726f6f665472616e7366657200000000000000000000000000000000000000815250600d019050908152602001604051809103902081908060018154018082558091505090600182039060005260206000200160009091929091909150906000191690555080600019167fc2a09c69a5846a699238737aac66bde46f2497753ec37631df1d7678a85d94b260405160405180910390a27fd13738129d4e55719e054079f01ce92b2a88f878df2d551f35c6d6fe3429bae9858530604051808473ffffffffffffffffffffffffffffffffffffffff1673ffffffffffffffffffffffffffffffffffffffff1681526020018373ffffffffffffffffffffffffffffffffffffffff1673ffffffffffffffffffffffffffffffffffffffff1681526020018273ffffffffffffffffffffffffffffffffffffffff1673ffffffffffffffffffffffffffffffffffffffff168152602001935050505060405180910390a15050505050565b6000600460009054906101000a900473ffffffffffffffffffffffffffffffffffffffff1673ffffffffffffffffffffffffffffffffffffffff16638592b22a303073ffffffffffffffffffffffffffffffffffffffff16638da5cb5b6040518163ffffffff167c0100000000000000000000000000000000000000000000000000000000028152600401602060405180830381600087803b15801561371a57600080fd5b505af115801561372e573d6000803e3d6000fd5b505050506040513d602081101561374457600080fd5b8101908080519060200190929190505050888888886040518763ffffffff167c0100000000000000000000000000000000000000000000000000000000028152600401808773ffffffffffffffffffffffffffffffffffffffff1673ffffffffffffffffffffffffffffffffffffffff1681526020018673ffffffffffffffffffffffffffffffffffffffff1673ffffffffffffffffffffffffffffffffffffffff168152602001858152602001848152602001806020018373ffffffffffffffffffffffffffffffffffffffff1673ffffffffffffffffffffffffffffffffffffffff168152602001828103825284818151815260200191508051906020019080838360005b8381101561386657808201518184015260208101905061384b565b50505050905090810190601f1680156138935780820380516001836020036101000a031916815260200191505b50975050505050505050602060405180830381600087803b1580156138b757600080fd5b505af11580156138cb573d6000803e3d6000fd5b505050506040513d60208110156138e157600080fd5b81019080805190602001909291905050509050600560405180807f50726f6f6646756e6374696f6e00000000000000000000000000000000000000815250600d019050908152602001604051809103902081908060018154018082558091505090600182039060005260206000200160009091929091909150906000191690555080600019167fc2a09c69a5846a699238737aac66bde46f2497753ec37631df1d7678a85d94b260405160405180910390a27f16a18e801b997dc34fa1fcbbdd89d5f830f4bf15f20c737faeb45935225b62dc3073ffffffffffffffffffffffffffffffffffffffff16638da5cb5b6040518163ffffffff167c0100000000000000000000000000000000000000000000000000000000028152600401602060405180830381600087803b158015613a1857600080fd5b505af1158015613a2c573d6000803e3d6000fd5b505050506040513d6020811015613a4257600080fd5b810190808051906020019092919050505030878787604051808673ffffffffffffffffffffffffffffffffffffffff1673ffffffffffffffffffffffffffffffffffffffff1681526020018573ffffffffffffffffffffffffffffffffffffffff1673ffffffffffffffffffffffffffffffffffffffff16815260200184815260200183815260200180602001828103825283818151815260200191508051906020019080838360005b83811015613b07578082015181840152602081019050613aec565b50505050905090810190601f168015613b345780820380516001836020036101000a031916815260200191505b50965050505050505060405180910390a15050505050565b606080606080606080600460009054906101000a900473ffffffffffffffffffffffffffffffffffffffff1673ffffffffffffffffffffffffffffffffffffffff1663b31675a5886040518263ffffffff167c0100000000000000000000000000000000000000000000000000000000028152600401808260001916600019168152602001915050600060405180830381600087803b158015613bee57600080fd5b505af1158015613c02573d6000803e3d6000fd5b505050506040513d6000823e3d601f19601f8201168201806040525060c0811015613c2c57600080fd5b810190808051640100000000811115613c4457600080fd5b82810190506020810184811115613c5a57600080fd5b8151856001820283011164010000000082111715613c7757600080fd5b50509291906020018051640100000000811115613c9357600080fd5b82810190506020810184811115613ca957600080fd5b8151856001820283011164010000000082111715613cc657600080fd5b50509291906020018051640100000000811115613ce257600080fd5b82810190506020810184811115613cf857600080fd5b8151856001820283011164010000000082111715613d1557600080fd5b50509291906020018051640100000000811115613d3157600080fd5b82810190506020810184811115613d4757600080fd5b8151856001820283011164010000000082111715613d6457600080fd5b50509291906020018051640100000000811115613d8057600080fd5b82810190506020810184811115613d9657600080fd5b8151856001820283011164010000000082111715613db357600080fd5b50509291906020018051640100000000811115613dcf57600080fd5b82810190506020810184811115613de557600080fd5b8151856001820283011164010000000082111715613e0257600080fd5b505092919050505095509550955095509550955091939550919395565b613e27612536565b1515613e3257600080fd5b613e3b81613f85565b50565b60006007600201541115613f8357600160009054906101000a900473ffffffffffffffffffffffffffffffffffffffff1673ffffffffffffffffffffffffffffffffffffffff1663a9059cbb600760030160009054906101000a900473ffffffffffffffffffffffffffffffffffffffff166007600201546040518363ffffffff167c0100000000000000000000000000000000000000000000000000000000028152600401808373ffffffffffffffffffffffffffffffffffffffff1673ffffffffffffffffffffffffffffffffffffffff16815260200182815260200192505050602060405180830381600087803b158015613f3b57600080fd5b505af1158015613f4f573d6000803e3d6000fd5b505050506040513d6020811015613f6557600080fd5b81019080805190602001909291905050505060006007600201819055505b565b600073ffffffffffffffffffffffffffffffffffffffff168173ffffffffffffffffffffffffffffffffffffffff1614151515613fc157600080fd5b8073ffffffffffffffffffffffffffffffffffffffff166000809054906101000a900473ffffffffffffffffffffffffffffffffffffffff1673ffffffffffffffffffffffffffffffffffffffff167f8be0079c531659141344cd1fd0a4f28419497f9722a3daafe3b4186f6b6457e060405160405180910390a3806000806101000a81548173ffffffffffffffffffffffffffffffffffffffff021916908373ffffffffffffffffffffffffffffffffffffffff160217905550505600a165627a7a72305820f9475a5e4b5b8b1ee2b172cf75022f9680c039da3dea498a66393d6cf331963e0029a165627a7a72305820e3657a574665228f328440e7bfa29cbd83763bd7229d5ca3999e490d5cf20f210029",
  "source": "pragma solidity ^0.4.25;\n\nimport \"contracts/devices/DepositDevice.sol\";\nimport \"contracts/DAOInterface.sol\";\nimport \"openzeppelin-solidity/contracts/ownership/Ownable.sol\";\n\ncontract DeviceFactory {\n    DAOInterface public dao;\n    mapping(address => address[]) deployed_devices;\n\n    //-------  EVENTS  -------//\n    event DeviceCreated(address indexed _deviceAddress);\n\n    constructor(address daoAddress) public {\n        dao = DAOInterface(daoAddress);\n    }\n\n    function createDevice(\n        uint256 _uid,\n        uint256 _initValue,\n        address _owner\n    ) public returns (address _device) {\n        DepositDevice newContract = new DepositDevice(\n            _uid,\n            _owner,\n            _initValue,\n            address(dao)\n        );\n        deployed_devices[_owner].push(newContract);\n        emit DeviceCreated(newContract);\n        return newContract;\n    }\n\n    function transfer(address current_owner, address new_owner) public {\n        deleteOwnership(current_owner);\n        deployed_devices[new_owner].push(msg.sender);\n    }\n\n    function deleteOwnership(address owner) internal {\n        uint256 length = deployed_devices[owner].length;\n        for (uint256 i = 0; i < length; i++) {\n            if (deployed_devices[owner][i] == msg.sender) {\n                deployed_devices[owner][i] = deployed_devices[owner][length - 1];\n                delete deployed_devices[owner][length - 1];\n                deployed_devices[owner].length--;\n                break;\n            }\n        }\n    }\n\n    function recycle(address _owner) public {\n        deleteOwnership(_owner);\n    }\n\n    function getDeployedDevices()\n        public\n        view\n        returns (address[] _deployed_devices)\n    {\n        return deployed_devices[msg.sender];\n    }\n\n}\n",
  "sourcePath": "/home/nilquera/Documents/TFG/eReuse/blockchain-dev/fork/eReuse-Blockchain/contracts/devices/DeviceFactory.sol",
  "compiler": {
    "name": "solc",
    "version": "0.4.25+commit.59dbf8f1.Emscripten.clang"
  },
  "schemaVersion": "3.3.1",
  "updatedAt": "2020-11-17T10:24:06.867Z",
  "networkType": "ethereum",
  "devdoc": {
    "methods": {}
  },
  "userdoc": {
    "methods": {}
  }
}