{
  "contractName": "StampProofs",
  "abi": [
    {
      "inputs": [],
      "payable": false,
      "stateMutability": "nonpayable",
      "type": "constructor"
    },
    {
      "anonymous": false,
      "inputs": [
        {
          "indexed": true,
          "name": "id",
          "type": "uint256"
        },
        {
          "indexed": true,
          "name": "hash",
          "type": "bytes32"
        },
        {
          "indexed": false,
          "name": "timestamp",
          "type": "uint256"
        }
      ],
      "name": "stampProof",
      "type": "event"
    },
    {
      "constant": false,
      "inputs": [
        {
          "name": "id",
          "type": "uint256"
        },
        {
          "name": "hash",
          "type": "bytes32"
        }
      ],
      "name": "setProof",
      "outputs": [],
      "payable": false,
      "stateMutability": "nonpayable",
      "type": "function"
    }
  ],
  "bytecode": "0x608060405234801561001057600080fd5b5060e98061001f6000396000f300608060405260043610603f576000357c0100000000000000000000000000000000000000000000000000000000900463ffffffff168063c0c98d6f146044575b600080fd5b348015604f57600080fd5b50607a600480360381019080803590602001909291908035600019169060200190929190505050607c565b005b8060001916827ff12ecef4f7c3de41a7670580de4b31e8b6b59b6d2b36fe3a8c11390b406aeb34426040518082815260200191505060405180910390a350505600a165627a7a72305820f8da40b6f872ab3bed981ea583c0e6c427d89496b134598ce5bb7da3676315e60029",
  "source": "pragma solidity ^0.4.25;\n\ncontract StampProofs {\n    // mapping(uint256 => bytes32) private stampProofs;\n    event stampProof(uint256 indexed id, bytes32 indexed hash, uint256 timestamp);\n\n    constructor() public {}\n\n    function setProof(uint256 id, bytes32 hash) public{\n        // stampProofs[id] = hash;\n        emit stampProof(id, hash, block.timestamp);\n    } \n}",
  "sourcePath": "/home/nilquera/Documents/TFG/eReuse/blockchain-dev/fork/eReuse-Blockchain/contracts/proofs/StampProofs.sol",
  "compiler": {
    "name": "solc",
    "version": "0.4.25+commit.59dbf8f1.Emscripten.clang"
  },
  "schemaVersion": "3.2.5",
  "updatedAt": "2020-10-26T16:43:24.810Z",
  "devdoc": {
    "methods": {}
  },
  "userdoc": {
    "methods": {}
  }
}